:100000000C9442050C945F050C945F050C945F05FD
:100010000C945F050C945F050C945F050C945F05D0
:100020000C945F050C945F050C94C5250C94002678
:100030000C945F050C945F050C945F050C945F05B0
:100040000C945F050C945F050C945F050C945F05A0
:100050000C945F050C945F050C945F050C947E2056
:100060000C945F050C945F050C945F050C945F0580
:100070000C945F050C945F050C945F050C945F0570
:100080000C945F050C945F050C945F050C945F0560
:100090000C945F050C945F050C945F050C945F0550
:1000A0000C945F050C945F050C945F055A25572549
:1000B000542551254E254B254825452542253F25CC
:1000C0003C2539253625332530252D252A2527257C
:1000D000242521251E251B251825152512250F252C
:1000E0000C250925062503250025FD24FA24F724DF
:1000F000F424F124EE24EB24E824E524E224DF2494
:10010000DC24D924D624D324D024CD24CA24C72443
:10011000C424C124BE24BB24B824B524B224AF24F3
:10012000AC24A924A624A324A0249D249A2405A8B1
:100130004CCDB2D44EB93836A9020C50B99186884C
:10014000083CA6AAAA2ABE000000803F47414D45B0
:1001500020535441525445440D0A00627275682080
:10016000686F77206861732074686973206C6576A6
:10017000656C206265656E2072756E6E696E6720B3
:10018000666F72203130206D696E75746573000D75
:100190000A792073657420746F3A20000D0A792063
:1001A000706F736974696F6E7B302C2E2E2E2C3419
:1001B000357D3A20000D0A782073657420746F3AFB
:1001C00020000D0A7820706F736974696F6E207B50
:1001D000302C2E2E2E2C38317D3A2000706C61632D
:1001E00065206120667261676D656E743A20000D4E
:1001F0000A792073657420746F3A20000D0A792003
:10020000706F736974696F6E7B302C2E2E2E2C34B8
:10021000337D3A20000D0A782073657420746F3A9C
:1002200020000D0A7820706F736974696F6E207BEF
:10023000302C2E2E2E2C37397D3A2000706C6163C5
:1002400065206120626F756C6465723A20000D0A4A
:10025000792073657420746F3A20000D0A7920703C
:100260006F736974696F6E7B302C2E2E2E2C343296
:100270007D3A20000D0A782073657420746F3A204F
:10028000000D0A7820706F736974696F6E207B307F
:100290002C2E2E2E2C37387D3A2000706C61636531
:1002A00020616E2061737465726F69643A20000D7D
:1002B0000A6E6577207370656564207365742074B9
:1002C0006F3A200063686F6F73652061206E6577F9
:1002D000207370656564207B302C2E2E2E2C3132DD
:1002E000377D3A0D0A000D0A61696D20736574202F
:1002F000746F3A200063686F6F73652061206E65CC
:10030000772061696D202864656729207B2D363050
:100310002C2E2E2E2C36307D3A0D0A000D0A782018
:10032000706F736974696F6E2073657420746F3AAF
:10033000200063686F6F73652061206E657720739E
:1003400074617266696768746572207820706F7373
:100350006974696F6E207B302C2E2E2E2C37357DE4
:100360003A0D0A000D0A736869656C64206865615E
:100370006C74682073657420746F3A200063686F32
:100380006F73652061206E657720626172726965A6
:1003900072206865616C7468207B302C2E2E2E2CA8
:1003A000357D3A0D0A000D0A73636F72652073651F
:1003B0007420746F3A200D0A0063686F6F736520B4
:1003C00061206E65772073636F7265207B302C2E01
:1003D0002E2E2C3939397D3A0D0A000D0A737065BD
:1003E00065643A20000D0A74757272657420616943
:1003F0006D3A20000D0A76697369626C6520706C35
:1004000061736D613A20000D0A76697369626C65EB
:1004100020667261676D656E74733A20000D0A760E
:10042000697369626C6520626F756C646572733A9A
:1004300020000D0A76697369626C652061737465CA
:10044000726F6964733A20000D0A73636F72653AC4
:1004500020000D0A6C697665733A200074696D6539
:100460003A20000D0A47414D45204F5645520D0A8E
:1004700000080C0C0F0F0F0C0C08081C3E7F3E1CD4
:10048000080000040E1F0E04000000000207020016
:100490000000000000060F1F361B0F0600000303BC
:1004A000000000000000006120E28093206D6F7664
:1004B0006520737061636573686970206C6566742C
:1004C0000D0A6420E28093206D6F76652073706161
:1004D0006365736869702072696768740D0A7720B4
:1004E000E28093206669726520706C61736D612093
:1004F000626F6C74730D0A7320E280932073656ED3
:100500006420616E6420646973706C617920676136
:100510006D65207374617475730D0A7220E28093A7
:10052000207374617274206F722072657365742019
:1005300067616D650D0A7020E280932070617573AC
:10054000652067616D650D0A7120E28093207175E9
:1005500069740D0A7420E2809320736574206169C8
:100560006D206F6620746865207475727265740DF5
:100570000A6D20E28093207365742074686520738F
:1005800070656564206F66207468652067616D65BD
:100590000D0A6C20E28093207365742074686520D6
:1005A00072656D61696E696E672075736566756CDD
:1005B000206C696665206F662074686520646566D6
:1005C0006C6563746F7220736869656C640D0A678B
:1005D00020E2809320736574207468652073636FD4
:1005E00072650D0A6820E28093206D6F7665207336
:1005F000706163657368697020746F20636F6F72D8
:1006000064696E6174650D0A6A20E2809320706CE3
:100610006163652061737465726F69642061742021
:10062000636F6F7264696E6174650D0A6B20E2809E
:100630009320706C61636520626F756C64657220D5
:10064000617420636F6F7264696E6174650D0A6C0A
:1006500020E2809320706C61636520667261676D33
:10066000656E7420617420636F6F7264696E61746B
:1006700065000D0A696E76616C696420696E70753B
:1006800074000D0A3D3D3D3D3D3D3D3D3D3D3D3D03
:100690003D3D3D3D3D3D3D3D3D3D3D3D3D3D3D3D8A
:1006A0003D3D3D3D3D3D3D3D3D3D3D3D3D3D3D3D7A
:1006B0003D3D3D3D3D3D3D3D3D3D3D3D3D3D3D3D6A
:1006C0003D3D3D3D3D3D3D3D3D3D3D3D3D3D3D3D5A
:1006D0003D3D0D0A002B002D00000100000D07120A
:1006E000000200001F07430003000062070401032B
:1006F0000904660714020309047C071603030904AE
:1007000094070C0001C112018036018136120100EC
:100710000202000010C0167A040001010203010960
:10072000024300020100C03209040000010202017C
:10073000000524001001052401010104240206051E
:10074000240600010705820310004009040100028D
:100750000A0000000705030240000007058402406C
:10076000000004030904140359006F0075007200AF
:1007700020004E0061006D0065000000160355006A
:1007800053004200200053006500720069006100C0
:100790006C0000000C0331003200330034003500DF
:1007A0000000000000000000005F000000070007DC
:1007B00000147F147F14242A7F2A122313086462F2
:1007C00036495522500005030000001C224100005C
:1007D00041221C0014083E081408083E0808005076
:1007E00030000008080808080060600000201008B9
:1007F00004023E5149453E00427F4000426151495A
:10080000462141454B311814127F10274545453983
:100810003C4A4949300171090503364949493606C0
:100820004949291E003636000000563600000814DB
:10083000224100141414141400412214080201511E
:100840000906324979413E7E1111117E7F4949499D
:10085000363E414141227F4141221C7F4949494165
:100860007F090909013E4149497A7F0808087F004C
:10087000417F41002040413F017F081422417F40D9
:100880004040407F020C027F7F0408107F3E4141C0
:10089000413E7F090909063E4151215E7F09192920
:1008A00046464949493101017F01013F4040403FEF
:1008B0001F2040201F3F4038403F63140814630747
:1008C000087008076151494543007F414100020417
:1008D0000810200041417F00040201020440404012
:1008E0004040000102040020545454787F4844449E
:1008F000383844444420384444487F3854545418C9
:10090000087E0901020C5252523E7F08040478000E
:10091000447D40002040443D007F102844000041B9
:100920007F40007C041804787C0804047838444430
:1009300044387C14141408081414187C7C0804042B
:10094000084854545420043F4440203C4040207CFC
:100950001C2040201C3C4030403C44281028440CC3
:100960005050503C4464544C440008364100000050
:100970007F00000041360800100808100878464142
:1009800046786E616E00696E660000407A10F35A18
:1009900000A0724E18090010A5D4E80000E87648BF
:1009A000170000E40B54020000CA9A3B000000E16B
:1009B000F505000080969800000040420F000000FE
:1009C000A08601000000102700000000E8030000DE
:1009D00000006400000000000A00000000000100A8
:1009E000000000002C76D888DC674F0823DFC1DFC9
:1009F000AE59E1B1B796E5E3E453C63AE6519976CC
:100A000096E8E6C28426EB898C9B62ED407C6FFC05
:100A1000EFBC9C9F40F2BAA56FA5F490055A2AF747
:100A20005C936B6CF9676DC11BFCE0E40D47FEF550
:100A300020E6B500D0ED902E0300943577050080B8
:100A4000841E080000204E0A000000C80C33333317
:100A5000330F986E12831141EF8D2114893BE655B7
:100A600016CFFEE6DB18D1844B381BF77C1D901D9A
:100A7000A4BBE424203284725E228100C9F124ECFC
:100A8000A1E53D2711241FBECFEFDAE0DEBFCDBFC9
:100A900011E0A0E0B1E0E8EBF6E602C005900D92AF
:100AA000AA39B107D9F718E0AAE9B1E001C01D924F
:100AB000AF3CB107E1F70E940A200C945A330C9422
:100AC000000026E130E0829FF001839FF00D929FAD
:100AD000F00D1124E254FE4F158A148A80E090E054
:100AE000A8ECB2EC80839183A283B3838483958343
:100AF000A683B78380E090E0A0E0B0E0848795878C
:100B0000A687B787808B918BA28BB38B8091B80619
:100B10009091B90601979093B9068093B80608950D
:100B20002AE130E0829FF001839FF00D929FF00D4B
:100B30001124E656FC4F118E108E80E090E0A0E06C
:100B4000B0E080839183A283B38384839583A6835B
:100B5000B78380879187A287B38784879587A68785
:100B6000B787808B918BA28BB38B8091BE069091BF
:100B7000BF0601979093BF068093BE060895CF935A
:100B8000DF93C0E0D0E0CE010E9490052196CE31E7
:100B9000D105C9F71092C1061092C0068091AA062D
:100BA0009091AB06A091AC06B091AD068093AE03D8
:100BB0009093AF03A093B003B093B1031092BF061C
:100BC0001092BE06DF91CF91089526E130E0829F1A
:100BD000F001839FF00D929FF00D1124EA5EFC4F0F
:100BE000158A148A80E090E0A0E0B0E080879187C9
:100BF000A287B387808B918BA28BB38B84879587D9
:100C0000A687B78780839183A283B38384839583E8
:100C1000A683B7838091BA069091BB060197909303
:100C2000BB068093BA060895CF93DF93C0E0D0E06F
:100C3000CE010E94E5052196C630D105C9F7109274
:100C4000BB061092BA06DF91CF91089526E130E0FD
:100C5000829FF001839FF00D929FF00D1124E25FBF
:100C6000FD4F158A148A80E090E0A0E0B0E0808714
:100C70009187A287B387808B918BA28BB38B84875C
:100C80009587A687B78780839183A283B383848364
:100C90009583A683B7838091BC069091BD0601978A
:100CA0009093BD068093BC060895CF93DF93C0E078
:100CB000D0E0CE010E9426062196CC30D105C9F79E
:100CC0001092BD061092BC06DF91CF9108958091DD
:100CD000D2019091D301892B79F08091E801909114
:100CE000E901892B19F421E030E00BC08091FE016D
:100CF0009091FF01892B19F020E030E002C022E042
:100D000030E0C9010895EAE2F3E020E030E08081BC
:100D10009181892B41F02F5F3F4F76962630310528
:100D2000B1F720E030E0C9010895E2E2F2E020E00E
:100D300030E080819181892B41F02F5F3F4F769683
:100D40002C303105B1F720E030E0C9010895E2EB25
:100D5000F3E020E030E080819181892B41F02F5F2A
:100D60003F4F7A962E313105B1F720E030E0C901CE
:100D7000089581E090E09093B3018093B201909345
:100D8000B5018093B40108950F931F939B0166E111
:100D900070E0869F8001879F100D969F100D112493
:100DA00002541E4F442737FD4095542FCA01B90104
:100DB0000E94972EF801608371838283938380E081
:100DC00090E0A0EEB0EC84839583A683B78381E0A6
:100DD00090E0958B848B1F910F9108958F929F9235
:100DE000AF92BF92CF92DF92EF92FF920F931F9339
:100DF000CF93DF93EC014B018130910589F5B4016C
:100E0000882777FD8095982F0E94972E5B016C01B3
:100E1000E090BE01F090BF010091C0011091C101AE
:100E2000C801B70120E030E040EE50E40E94902D70
:100E30009B01AC01C601B5010E94D32F181684F4A2
:100E4000C801B70120E030E040EE50E40E94912D4F
:100E50009B01AC01C601B5010E94F52D87FD75C04F
:100E6000B401882777FD8095982F0E94972E5B010B
:100E70006C01219786E190E0C89FF001C99FF00DB9
:100E8000D89FF00D11242196E254FE4FE080F180AE
:100E900002811381C801B70120E030E040EE50E448
:100EA0000E94902D9B01AC01C601B5010E94D32F79
:100EB000181684F4C801B70120E030E040EE50E499
:100EC0000E94912D9B01AC01C601B5010E94F52D38
:100ED00087FD3BC0229786E190E0C89FF001C99F43
:100EE000F00DD89FF00D1124E254FE4FE080F18008
:100EF00002811381C801B70120E030E040EE50E4E8
:100F00000E94902D9B01AC01C601B5010E94D32F18
:100F100018161CF021E030E01AC09924C801B7016E
:100F200020E030E040EE50E40E94912D9B01AC01A6
:100F3000C601B5010E94F52D882314F499249394D9
:100F400081E09826292D30E002C020E030E0C90180
:100F5000DF91CF911F910F91FF90EF90DF90CF9095
:100F6000BF90AF909F908F90089580E090E0A0E0B8
:100F7000B0E08093AA069093AB06A093AC06B09322
:100F8000AD068093A6069093A706A093A806B093FB
:100F9000A9061092AF061092AE061092B1061092FA
:100FA000B0061092B3061092B20621E030E0309302
:100FB000CF062093CE061092BF061092BE06109266
:100FC000B9061092B8061092BB061092BA0610929B
:100FD000BD061092BC061092B7061092B60685E0C8
:100FE00090E09093C5068093C4063093CB0620937F
:100FF000CA061092CD061092CC06089581E090E0CA
:1010000090930B0280930A0210920D0210920C0230
:101010001092090210920802089510920B02109289
:101020000A0210920D0210920C0281E090E090935F
:10103000090280930802089510920B0210920A028E
:1010400081E090E090930D0280930C0210920902CF
:10105000109208020895AF92BF92CF92DF92EF9262
:10106000FF920F931F936091AA01669570E0882705
:1010700077FD8095982F0E94972E7B018C0180919F
:10108000B4019091B501892B79F5A090C606B09076
:10109000C706C090C806D090C906C801B70120E0B5
:1010A00030E040EA50E40E94912D9B01AC01C60162
:1010B000B5010E94F52D8823BCF4C801B70120E0DA
:1010C00030E040EA50E40E94902D9B01AC01C60143
:1010D000B5010E94D32F18163CF481E090E0909364
:1010E000B5018093B4010EC08091B4019091B50117
:1010F000892B41F0E092C606F092C7060093C8061D
:101100001093C9061F910F91FF90EF90DF90CF9041
:10111000BF90AF900895AF92BF92CF92DF92EF92BF
:10112000FF920F931F93E090AA06F090AB060091F8
:10113000AC061091AD06C801B70120E030E040E2F6
:1011400051E40E94D72F0E94D22E5B016C0166B53C
:1011500070E0660F771F882777FD8095982F0E9493
:10116000972E20E030E040E854E40E94D72F20E0A2
:1011700034E244EF5AE40E94FC2D9B01AC01C8010B
:10118000B7010E94912D6093AA067093AB068093DD
:10119000AC069093AD0620E030E040E251E40E94BE
:1011A000D72F0E94D22E0E94642E7B018C01C60193
:1011B000B5010E94642E0894E108F108E616F706CE
:1011C00049F48091B2069091B30601969093B306CC
:1011D0008093B2068091B2069091B3060A9769F4A3
:1011E0001092B3061092B2068091AE069091AF06AF
:1011F00001969093AF068093AE068091AE069091D3
:10120000AF06CC9769F41092AF061092AE068091AB
:10121000B0069091B10601969093B1068093B00606
:101220008091B0069091B1060A9781F48091AE0644
:101230009091AF06892B51F48091B2069091B3063C
:10124000892B21F48BE591E00E94E0211F910F9101
:10125000FF90EF90DF90CF90BF90AF900895EF9206
:10126000FF920F931F93CF93DF938091BC069091D1
:10127000BD060C9709F480C00E94EE218CED91E030
:101280000E94E021E2E2F2E0EE24FF2480819181DD
:10129000892B51F00894E11CF11C76968CE0E8163D
:1012A000F104A1F7EE24FF248091BC069091BD06C5
:1012B00001969093BD068093BC0682EC91E00E945B
:1012C000E02182E090E00E940322EC01823591054A
:1012D00050F586E190E0E89E8001E99E100DF89EB1
:1012E000100D1124025F1D4FBE01882777FD8095E8
:1012F000982F0E94972EF8016083718382839383D5
:1013000085EB91E00E94E021CE010E945C218CE9F6
:1013100091E00E94E02182E090E00E940322EC0133
:101320008E32910518F00E94FC2126C0BE0188274C
:1013300077FD8095982F0E94972EF801648375831E
:10134000868397838FE891E00E94E021CE010E947E
:101350005C210E94EE2180E090E0A0E0B0E0F80186
:10136000808B918BA28BB38B84879587A687B78759
:1013700081E090E0958B848BDF91CF911F910F914D
:10138000FF90EF900895EF92FF920F931F93CF93EA
:10139000DF938091BA069091BB06069709F480C04E
:1013A0000E94EE218CE392E00E94E021EAE2F3E069
:1013B000EE24FF2480819181892B51F00894E11C57
:1013C000F11C769686E0E816F104A1F7EE24FF24DE
:1013D0008091BA069091BB0601969093BB068093CC
:1013E000BA0682E292E00E94E02182E090E00E9450
:1013F0000322EC018035910550F586E190E0E89EEE
:101400008001E99E100DF89E100D11240A5E1C4FFC
:10141000BE01882777FD8095982F0E94972EF801AE
:10142000608371838283938385E192E00E94E0214F
:10143000CE010E945C218CEF91E00E94E02182E0CD
:1014400090E00E940322EC018C32910518F00E947A
:10145000FC2126C0BE01882777FD8095982F0E9429
:10146000972EF80164837583868397838FEE91E0CE
:101470000E94E021CE010E945C210E94EE2180E0CA
:1014800090E0A0E0B0E0F801808B918BA28BB38B51
:1014900084879587A687B78781E090E0958B848BBA
:1014A000DF91CF911F910F91FF90EF900895EF92F0
:1014B000FF920F931F93CF93DF938091B806909183
:1014C000B906039709F48AC00E94EE218BE992E0E5
:1014D0000E94E0218091D2019091D301892B81F06B
:1014E0008091E8019091E901892B21F421E0E22E1D
:1014F000F12C0CC08091FE019091FF01892B19F015
:10150000EE24FF2403C092E0E92EF12C8091B8066E
:101510009091B90601969093B9068093B80681E838
:1015200092E00E94E02182E090E00E940322EC0120
:101530008F34910550F586E190E0E89E8001E99EA8
:10154000100DF89E100D112402541E4FBE01882765
:1015500077FD8095982F0E94972EF8016083718304
:101560008283938384E792E00E94E021CE010E946F
:101570005C218BE592E00E94E02182E090E00E94F5
:101580000322EC018B32910518F00E94FC2126C049
:10159000BE01882777FD8095982F0E94972EF8012D
:1015A00064837583868397838EE492E00E94E021B2
:1015B000CE010E945C210E94EE2180E090E0A0E03C
:1015C000B0E0F801808B918BA28BB38B84879587D9
:1015D000A687B78781E090E0958B848BDF91CF91D0
:1015E0001F910F91FF90EF900895CF93DF930E948A
:1015F000EE2184EC92E00E94E02183E090E00E94E2
:101600000322EC018038910518F00E94FC211CC0D7
:101610001092B5011092B401BE01882777FD809524
:10162000982F0E94972E6093C6067093C7068093EA
:10163000C8069093C9068FEA92E00E94E021CE018D
:101640000E945C210E94EE21DF91CF910895CF93FB
:10165000DF930E94EE2185EF92E00E94E02182E07C
:1016600090E00E940322EC01CC968937910518F096
:101670000E94FC2111C01092B3011092B201D093CC
:10168000C306C093C20686EE92E00E94E021CE011E
:101690000E945C210E94EE21DF91CF910895CF93AB
:1016A000DF930E94EE2182E393E00E94E02182E03A
:1016B00090E00E940322EC018C34910518F00E9406
:1016C000FC2126C010920B0210920A0210920D0209
:1016D00010920C0281E090E090930902809308023E
:1016E000BE01882777FD8095982F0E94972E6093E2
:1016F00000027093010280930202909303028CE136
:1017000093E00E94E021CE010E945C210E94EE2124
:10171000DF91CF910895CF93DF930E94EE218DE763
:1017200093E00E94E02181E090E00E940322EC011E
:101730008630910518F00E94FC210DC09093C506DB
:101740008093C40684E693E00E94E021CE010E94CB
:101750005C210E94EE21DF91CF910895CF93DF931A
:101760000E94EE2189EB93E00E94E02183E090E06B
:101770000E940322EC0183E0C83ED80718F00E94C3
:10178000FC210DC0D093B706C093B60686EA93E05D
:101790000E94E021CE010E945C210E94EE21DF9197
:1017A000CF910895AF92BF92CF92DF92EF92FF92C6
:1017B0000F931F93DF93CF93CDB7DEB72C970FB660
:1017C000F894DEBF0FBECDBF0E946B278DB79EB7CA
:1017D00008970FB6F8949EBF0FBE8DBFEDB7FEB74A
:1017E00031965E010894A11CB11CADB7BEB712962C
:1017F000BC92AE92119743E0E42EF12CF382E28288
:1018000000E011E0158304838091B6069091B7063D
:10181000978386830E946F32EDB7FEB7319634E02E
:10182000C32ED12CCC0EDD1EADB7BEB71296DC9206
:10183000CE921197F382E282158304838091B406DD
:101840009091B506978386830E946F3200D0EDB7E2
:10185000FEB731968E01095F1F4FADB7BEB7129626
:101860001C930E93119786E090E09383828383E02C
:1018700091E0958384838091B0069091B10697831F
:1018800086838091AE069091AF06918780870E94F3
:101890006F328DB79EB70A960FB6F8949EBF0FBEF3
:1018A0008DBF81E090E061E070E04DE051E021E02B
:1018B0000E94622988E290E061E070E0A80121E0E6
:1018C0000E94622981E090E06FE070E044E151E025
:1018D00021E00E94622988E290E06FE070E0A601BA
:1018E00021E00E94622981E090E06EE170E04BE12E
:1018F00051E021E00E94622988E290E06EE170E010
:10190000A50121E00E9462290E9487292C960FB62A
:10191000F894DEBF0FBECDBFCF91DF911F910F9125
:10192000FF90EF90DF90CF90BF90AF9008950F930E
:101930001F93DF93CF9300D000D000D0CDB7DEB798
:101940000E94EE218DB79EB70A970FB6F8949EBFFE
:101950000FBE8DBFEDB7FEB731968E010F5F1F4FE3
:10196000ADB7BEB712961C930E93119786E090E028
:101970009383828383E091E0958384838091B00692
:101980009091B106978386838091AE069091AF06C1
:10199000918780870E946F328DB79EB70A960FB6E7
:1019A000F8949EBF0FBE8DBF8CE594E00E94E021AD
:1019B000C8010E94512182E594E00E94E0218091BB
:1019C000B4069091B5060E945C2188E494E00E94E0
:1019D000E0218091B6069091B7060E945C2182E3D7
:1019E00094E00E94E0218091B8069091B9060E948F
:1019F0005C218DE194E00E94E0218091BA069091F3
:101A0000BB060E945C2187E094E00E94E021809167
:101A1000BC069091BD060E945C2184EF93E00E9479
:101A2000E0218091BE069091BF060E945C2185EE68
:101A300093E00E94E0218091C2069091C3060E942B
:101A40005C218BED93E00E94E0216091C6067091CD
:101A5000C7068091C8069091C9060E94642EDC01D9
:101A6000CB010E945C210E94EE2126960FB6F894CD
:101A7000DEBF0FBECDBFCF91DF911F910F910895B3
:101A80004F925F926F927F928F929F92AF92BF928E
:101A9000CF92DF92EF92FF920F931F93CF93DF933A
:101AA0002C018AE190E0489EE001499ED00D589EAD
:101AB000D00D1124C656DC4F6C817D818E819F81B3
:101AC0002C853D854E855F850E94912D7B018C0183
:101AD000C8010E943A30688479848A849B84A888EB
:101AE000B988CA88DB880E94642E6335710578F452
:101AF000C401B301A60195010E94902D0E943A30C5
:101B00000E94642E77FD03C06033710524F0C2018A
:101B10000E94900510C0C701D8018C839D83AE83BD
:101B2000BF83C401B301A60195010E94902D68876F
:101B300079878A879B87DF91CF911F910F91FF90C3
:101B4000EF90DF90CF90BF90AF909F908F907F905D
:101B50006F905F904F900895CF93DF93C0E0D0E0F7
:101B6000CE010E94400D2196CE31D105C9F7DF91FB
:101B7000CF910895AF92BF92CF92DF92EF92FF92F2
:101B80000F931F936091A90170E0605870408827FF
:101B900077FD8095982F0E94972E20E030E040EF4F
:101BA0005EE30E94D72F7B018C018091B20190915E
:101BB000B301892B99F56091C2067091C3068827FD
:101BC00077FD8095982F0E94972E5B016C01C801CC
:101BD000B70120E030E040EA50E40E94912D9B01E3
:101BE000AC01C601B5010E94F52D8823BCF4C801E3
:101BF000B70120E030E040EA50E40E94902D9B01C4
:101C0000AC01C601B5010E94D32F18163CF481E047
:101C100090E09093B3018093B20110C08091B20123
:101C20009091B301892B51F0C801B7010E943A305D
:101C30000E94642E7093C3066093C2061F910F9199
:101C4000FF90EF90DF90CF90BF90AF900895EF920C
:101C5000FF920F931F9380910A0290910B02892BA0
:101C6000E9F0E0900002F090010200910202109170
:101C70000302C801B7010E943A3020E030E040E0A2
:101C800050E00E94D32F18164CF4C801B7012DEC78
:101C90003CEC4CEC5EE30E94902D22C080910C0243
:101CA00090910D02892B21F1E0900002F090010249
:101CB0000091020210910302C801B7010E943A305C
:101CC00020E030E046E952E40E94F52D882384F4B8
:101CD000C801B7012DEC3CEC4CEC5EE30E94912D69
:101CE00060930002709301028093020290930302BA
:101CF0001F910F91FF90EF9008956F927F928F92B6
:101D00009F92AF92BF92CF92DF92EF92FF920F938A
:101D10001F936091BE017091BF018091C0019091AD
:101D2000C10120E030E040E850E40E94902D0E9484
:101D30003A303B014C016091D4017091D501809102
:101D4000D6019091D70120E030E040E850E40E94B5
:101D5000902D0E943A305B016C016091EA01709114
:101D6000EB018091EC019091ED0120E030E040E842
:101D700050E40E94902D0E943A307B018C01C401F6
:101D8000B301A60195010E94912DA80197010E941F
:101D9000912D20E030E040E450E40E94FC2D0E94B0
:101DA000642E6A32710554F08091B2069091B306A8
:101DB0000697059760F42B9A2A980BC08091B2067B
:101DC0009091B3060697059710F42A9A01C02A98B5
:101DD0002B981F910F91FF90EF90DF90CF90BF90C5
:101DE000AF909F908F907F906F9008952F923F9229
:101DF0004F925F926F927F928F929F92AF92BF921B
:101E0000CF92DF92EF92FF920F931F93DF93CF93C6
:101E100000D000D0CDB7DEB76C018B015A83498367
:101E20003C832B83FB0160817181828193810E94BD
:101E30003A301B012C01F6016481758186819781FE
:101E40000E943A303B014C01F80164817581868122
:101E500097810E943A307B018C01F6016085718583
:101E6000828593850E943A305B016C01C801B701FD
:101E700020E030E040E85FE30E94912D7B018C017F
:101E8000C601B50120E030E040E05FE30E94912D03
:101E90009B01AC01C801B7010E94902D0E94642EE5
:101EA0006B0177FF04C0D094C194D108D394C201D0
:101EB000B10120E030E040E85FE30E94912D7B011A
:101EC0008C01C401B30120E030E040E05FE30E94F8
:101ED000912D9B01AC01C801B7010E94902D0E9479
:101EE000642ECB0177FF03C0909581959F4FC80E5C
:101EF000D91EB601882777FD8095982F0E94972ECE
:101F000020E030E040EC5FE30E94F52D18168CF0E5
:101F10008091B6069091B70604969093B706809389
:101F2000B6068B819C810E94900589819A810E94CE
:101F300026060F900F900F900F90CF91DF911F9179
:101F40000F91FF90EF90DF90CF90BF90AF909F9058
:101F50008F907F906F905F904F903F902F9008955B
:101F6000CF92DF92EF92FF920F931F93CF93DF9365
:101F70006C018AE190E0C89E7001C99EF00CD89E69
:101F8000F00C11248AE993E0E80EF91E0EE012E04D
:101F9000C0E0D0E0F80184899589892B31F0C70130
:101FA000B801AE0196010E94F60E21960A5E1F4FFF
:101FB000CC30D10579F7DF91CF911F910F91FF9030
:101FC000EF90DF90CF900895EF92FF920F931F93C1
:101FD000CF93DF938C017B01FC0160817181828151
:101FE00093810E943A3020E030E040E85FE30E94B5
:101FF000912D0E94642EEB01F80164817581868128
:1020000097810E943A3020E030E040E450E40E94A2
:10201000912D0E94642EC0FD04C068327105A1F4A8
:1020200007C0CE01019680FD0FC06732710561F4D3
:10203000C7010E9426068091C4069091C5060197AB
:102040009093C5068093C406DF91CF911F910F91A5
:10205000FF90EF9008950F931F93CF93DF930EE0BF
:1020600012E0C0E0D0E0F80184899589892B21F045
:10207000C801BE010E94E40F21960A5E1F4FCC30BA
:10208000D10589F7DF91CF911F910F910895EF92BC
:10209000FF920F931F93CF93DF938C017B01FC0181
:1020A00060817181828193810E943A3020E030E02A
:1020B00040E450E40E94912D0E94642EEB01F8014F
:1020C00064817581868197810E943A3020E030E0FA
:1020D00040EA50E40E94912D0E94642EC0FD04C08D
:1020E00068327105A1F407C0CE01019680FD0FC0D2
:1020F0006732710561F4C7010E94E5058091C4064D
:102100009091C50601979093C5068093C406DF9110
:10211000CF911F910F91FF90EF9008950F931F9310
:10212000CF93DF9306E113E0C0E0D0E0F8018489AB
:102130009589892B21F0C801BE010E944710219684
:102140000A5E1F4FC630D10589F7DF91CF911F91ED
:102150000F910895EF92FF920F931F93CF93DF9308
:102160008C017B01FC0160817181828193810E94DD
:102170003A3020E030E040E850E40E94912D0E9487
:10218000642EEB01F80164817581868197810E943C
:102190003A3020E030E040EE50E40E94912D0E9461
:1021A000642EC0FD04C068327105A1F407C0CE01E1
:1021B000019680FD0FC06732710561F4C7010E946E
:1021C00061058091C4069091C50601979093C5065C
:1021D0008093C406DF91CF911F910F91FF90EF90F4
:1021E00008950F931F93CF93DF930EEB11E0C0E0A0
:1021F000D0E0F80184899589892B21F0C801BE01BE
:102200000E94AA1021960A5E1F4FC330D10589F79C
:10221000DF91CF911F910F9108958091B806909111
:10222000B9061816190614F40E94F1108091BA0626
:102230009091BB061816190614F40E948E10809116
:10224000BC069091BD061816190614F40E942B10B6
:102250000895AF92BF92CF92DF92EF92FF920F93C9
:102260001F9326E130E0829F8001839F100D929F93
:10227000100D1124025F1D4FF80160817181828170
:1022800093810E943A305B016C01F8016481758191
:10229000868197810E943A307B018C01C601B5018D
:1022A0000E94642E5B016C01C801B7010E94642E7C
:1022B0009B01AC0183E090E0B501A90121E00E94FF
:1022C000B9201F910F91FF90EF90DF90CF90BF90BA
:1022D000AF9008950F931F93CF93DF9302E212E024
:1022E000C0E0D0E0F80180819181892B19F0CE0106
:1022F0000E94291121960A5E1F4FCC30D10591F71B
:10230000DF91CF911F910F910895AF92BF92CF921D
:10231000DF92EF92FF920F931F9326E130E0829FAE
:102320008001839F100D929F100D11240A5E1C4F97
:10233000F80160817181828193810E943A305B0152
:102340006C01F80164817581868197810E943A3021
:102350007B018C01C601B5010E94642E5B016C01FA
:10236000C801B7010E94642E9B01AC0182E090E09D
:10237000B501A90121E00E94B9201F910F91FF90A2
:10238000EF90DF90CF90BF90AF9008950F931F9381
:10239000CF93DF930AE213E0C0E0D0E0F801808140
:1023A0009181892B19F0CE010E94851121960A5E38
:1023B0001F4FC630D10591F7DF91CF911F910F913B
:1023C0000895AF92BF92CF92DF92EF92FF920F9358
:1023D0001F9326E130E0829F8001839F100D929F22
:1023E000100D112402541E4FF80160817181828109
:1023F00093810E943A305B016C01F8016481758120
:10240000868197810E943A307B018C01C601B5011B
:102410000E94642E5B016C01C801B7010E94642E0A
:102420009B01AC0181E090E0B501A90121E00E948F
:10243000B9201F910F91FF90EF90DF90CF90BF9048
:10244000AF9008958091D2019091D301892B21F012
:1024500080E090E00E94E1118091E8019091E90113
:10246000892B21F081E090E00E94E1118091FE0132
:102470009091FF01892B21F082E090E00E94E11110
:102480000895AF92BF92CF92DF92EF92FF920F9397
:102490001F932AE130E0829F8001839F100D929F5D
:1024A000100D112406561C4FF80164817581868138
:1024B00097810E943A305B016C01F801608571855B
:1024C000828593850E943A307B018C01C601B5015B
:1024D0000E94642E5B016C01C801B7010E94642E4A
:1024E0009B01AC0185E090E0B501A90121E00E94CB
:1024F000B9201F910F91FF90EF90DF90CF90BF9088
:10250000AF9008950F931F93CF93DF9302EB13E0E7
:10251000C0E0D0E0F80180819181892B19F0CE01D3
:102520000E9441122196065E1F4FCE31D10591F7D0
:10253000DF91CF911F910F910895AF92BF92CF92EB
:10254000DF92EF92FF920F931F93609100027091C0
:10255000010280910202909103020E943A305B01D5
:102560006C016091040270910502809106029091C5
:1025700007020E943A307B018C01C601B5010E941E
:10258000642E5B016C01C801B7010E94642E9B019F
:10259000AC0180E090E0B501A90121E00E94B920E2
:1025A0001F910F91FF90EF90DF90CF90BF90AF9071
:1025B0000895AF92BF92CF92DF92EF92FF920F9366
:1025C0001F935C018AE190E0A89E6001A99ED00C57
:1025D000B89ED00C11248AE993E0C80ED91E6091F0
:1025E000C2067091C306882777FD8095982F0E94B8
:1025F000972E7B018C01F601608371838283938324
:102600006091A7017091A801882777FD8095982F88
:102610000E94972EF6016483758386839783609169
:10262000A5017091A60162507040882777FD8095C2
:10263000982F0E94972EF601608771878287938773
:10264000C801B7012BED3FE049E450E40E94D72FC9
:1026500020E030E044E353E40E94FC2D7B018C0138
:102660000E945A302DEC3CEC4CE45EE30E94D72FE4
:10267000F6016487758786879787C801B7010E942E
:10268000F92D2DEC3CEC4CE45EE30E94D72FF601D3
:10269000608B718B828B938B81E090E0918F808F28
:1026A0008091AA069091AB06A091AC06B091AD06C0
:1026B000848B958BA68BB78BB092C106A092C00677
:1026C000EEEBF6E0808191810196918380831F91EA
:1026D0000F91FF90EF90DF90CF90BF90AF90089553
:1026E000E2EBF3E020E030E080819181892B41F042
:1026F0002F5F3F4F7A962E313105B1F720E030E061
:10270000C9010E94D91208952F923F924F925F9271
:102710006F927F928F929F92AF92BF92CF92DF92F1
:10272000EF92FF920F931F93DF93CF93CDB7DEB756
:102730002C970FB6F894DEBF0FBECDBF609100029C
:102740007091010280910202909103020E943A303E
:1027500020E030E040E850E40E94912D0E94642E79
:1027600069877A878B879C87A984BA8480910402C1
:1027700090910502A0910602B09107028D839E837D
:10278000AF83B887BC01CD010E943A3069837A8358
:102790008B839C836091C2067091C306882777FD66
:1027A0008095982F0E94972E2BED3FE049E450E44E
:1027B0000E94D72F20E030E044E353E40E94FC2D38
:1027C0007B018C01C8010E945A303B014C01B701CA
:1027D000C8010E94F92D1B012C01C401B30120E0A6
:1027E00030E040E450E40E94D72F0E943A307B0151
:1027F0008C01CC24B7FCC094DC2CC601B5010E942E
:10280000972EA80197010E94912D0E94642E5B01D2
:102810006C017093A8016093A701C201B10120E08F
:1028200030E040E450E40E94D72F0E943A309B01F0
:10283000AC016D817E818F8198850E94902D0E94D0
:10284000642E7B018C017093A6016093A5016981C0
:102850007A818B819C810E94642E9B01AC018985C9
:102860009A85B901A501970101E00E94AE272C9637
:102870000FB6F894DEBF0FBECDBFCF91DF911F9191
:102880000F91FF90EF90DF90CF90BF90AF909F900F
:102890008F907F906F905F904F903F902F90089512
:1028A0008091B8069091B9061816190614F40E9482
:1028B00022128091BA069091BB061816190614F4DC
:1028C0000E94C6118091BC069091BD06181619068B
:1028D00014F40E946A118091BE069091BF061816EA
:1028E000190614F40E9482128091C4069091C506C4
:1028F0001816190614F40E94A6200E949D120E9428
:10290000841308950F931F93DF93CF9300D000D0CB
:1029100000D0CDB7DEB70E946B2780E06DE00E944B
:102920009A2984E090E063E170E048E150E021E022
:102930000E94B9208DB79EB708970FB6F8949EBF36
:102940000FBE8DBFEDB7FEB731968E010F5F1F4FE3
:10295000ADB7BEB712961C930E93119786E090E028
:102960009383828382E291E0958384838091B4068D
:102970009091B506978386830E946F328DB79EB77C
:1029800008960FB6F8949EBF0FBE8DBF87E290E009
:1029900068E170E0A80121E00E9462290E94872975
:1029A00080E197E228EC30E0F9013197F1F70197E7
:1029B000D9F70E946B2780E06CE00E949A29269646
:1029C0000FB6F894DEBF0FBECDBFCF91DF911F9140
:1029D0000F9108950E946B2780E06DE00E949A2974
:1029E00085E090E065E070E048E251E021E00E947F
:1029F00062290E94872980E090E00E945A330E9459
:102A0000EA220E9412230E94F7220E94FE2278945A
:102A10008AE090E06AE070E042E351E021E00E9449
:102A200062290E9487290E9494238823E1F30E944F
:102A30006B270895109209021092080210920B025F
:102A400010920A0210920D0210920C0280E090E0A7
:102A5000A8E1B2E48093000290930102A0930202E5
:102A6000B093030280E090E0A0E3B2E4809304021C
:102A700090930502A0930602B09307020E9445318D
:102A800062E070E00E949630009741F0813091053D
:102A900059F490930B0280930A02089581E090E02C
:102AA00090930D0280930C0208956F927F928F9203
:102AB0009F92AF92BF92CF92DF92EF92FF920F93CD
:102AC0001F93CF93DF932A982B980E9445316CE493
:102AD00070E00E9496300196AA2797FDA095BA2F24
:102AE000BC01CD010E94972E6093BE017093BF017F
:102AF0008093C0019093C10180E090E0A0EEB0EC23
:102B00008093C2019093C301A093C401B093C50107
:102B100081E090E09093D3018093D201C1E0D0E0B6
:102B200066E1662E712C0F2EF0E0AF2EF0E0BF2E86
:102B3000F0EECF2EF0ECDF2EF02D51E0852E912C13
:102B40000E9445316CE470E00E9496307C0108944C
:102B5000E11CF11CCE01B7010E94EE06892BE9F0C1
:102B6000C69D8001C79D100DD69D100D11240254E5
:102B70001E4FB701882777FD8095982F0E94972ECA
:102B8000F8016083718382839383A482B582C682B5
:102B9000D782958A848A219601C02197C330D105B6
:102BA0007CF283E090E09093B9068093B806DF91C1
:102BB000CF911F910F91FF90EF90DF90CF90BF903A
:102BC000AF909F908F907F906F90089581E090E0FC
:102BD0009093B3018093B2019093B5018093B401B7
:102BE0000E94B5070E94BF050E9414060E94550668
:102BF0000E941A150E9455150E9482140895282FCC
:102C00008091AD01813011F0273781F58091BE06AA
:102C10009091BF064E970CF02BC12091C0063091C9
:102C2000C1068AE190E0289FF001299FF00D389FAE
:102C3000F00D1124E656FC4F6091AA067091AB0688
:102C40008091AC069091AD062489358946895789D3
:102C50000E94902D2DEC3CEC4CE45EE30E94D32FBF
:102C600018160CF005C10E94701308958091AB01F5
:102C7000813011F02136B1F58091BC019091BD01F8
:102C8000892B81F58091080290910902892B79F0B6
:102C900081E090E090930B0280930A0210920D0263
:102CA00010920C02109209021092080214C0809136
:102CB0000C0290910D02892B71F010920B02109270
:102CC0000A0210920D0210920C0281E090E09093A3
:102CD00009028093080281E090E09093BD01809307
:102CE000BC0108958091AC01813011F02436B1F51A
:102CF0008091BA019091BB01892B81F580910802E6
:102D000090910902892B79F010920B0210920A021D
:102D100081E090E090930D0280930C0210920902E2
:102D20001092080214C080910A0290910B02892B24
:102D300071F010920B0210920A0210920D02109282
:102D40000C0281E090E0909309028093080281E0F8
:102D500090E09093BB018093BA0108958091AF01F8
:102D6000813011F02037D9F48091B6019091B701EC
:102D7000892BA9F420E030E08091CA069091CB061F
:102D8000892B11F421E030E03093CB062093CA0662
:102D900081E090E09093B7018093B601089580910F
:102DA000AE01813011F0233729F58091B80190915F
:102DB000B901892BF9F420E030E08091CC069091A4
:102DC000CD06892B11F421E030E03093CD0620931D
:102DD000CC068091CA069091CB06892B11F0232B4B
:102DE00011F00E94970C81E090E09093B9018093DC
:102DF000B80108958091B001813011F0223719F4A3
:102E00000E94E61508958091B101813011F02137BB
:102E100019F40E94EA1408952C3619F40E948B0BC1
:102E200008952F3319F40E94F3210895273619F4D9
:102E30000E94AE0B08952D3619F40E94F50A0895EC
:102E4000243719F40E94270B0895283619F40E949C
:102E50004F0B08952A3619F40E94570A08952B360D
:102E600019F40E94C3090895293611F40E942F090C
:102E70000895AF92BF92CF92DF92EF92FF920F939D
:102E8000CF93DF93EE24FF24C5E0D0E0EFEFAE2E2A
:102E9000E3E0BE2E78ECC72ED12C0E946B27C70131
:102EA0000E94E122EA24FB2488E893E1F6013197AD
:102EB000F1F70197D9F72C9685E090E063E270E096
:102EC00041E451E021E00E94622985E090E06BE25C
:102ED00070E0AE012BE230E001E00E94AE2785E019
:102EE00090E065E070E048E251E021E00E94622954
:102EF00085E090E06FE070E04CE451E021E00E945A
:102F000062290E948729CD34D10539F680E090E00E
:102F10000E94E122C0E0D0E086B5C80FD11D0E941A
:102F20009723982F8091B001813011F0923779F476
:102F3000CE010E944A310E94E615DF91CF910F9198
:102F4000FF90EF90DF90CF90BF90AF9008950E94D8
:102F50006B2785E090E06BE270E04DE450E02BE2FF
:102F600030E001E00E94AE2785E090E063E270E08F
:102F70004BE551E021E00E94622985E090E065E0A8
:102F800070E048E251E021E00E94622985E090E093
:102F90006FE070E04CE451E021E00E9462290E9461
:102FA0008729BACFE1E6F0E080E8808381E0808382
:102FB0008FE30E94BB290E94EC290E947B230E9480
:102FC000FF1482E090E09093B5068093B4060E94CF
:102FD00039170E94E61508950F931F93CF93DF933F
:102FE0000E946B27C0E0D0E000EA1FE0CE010E9403
:102FF000E122C8010197F1F7219684E0C030D8079B
:10300000A9F72B9A2A9A8FE090E065E070E049E6F4
:1030100051E021E00E9462290E94872980E29EE41B
:1030200028EC30E0F9013197F1F70197D9F72A98A8
:103030002B98CFEFD3E000EA1FE0CE010E94E122FF
:10304000C8010197F1F721978FEFCF3FD807A9F774
:103050000E946B278FE090E065E070E049E651E068
:1030600021E00E9462298FE090E064E170E043E794
:1030700051E021E00E9462298FE090E063E270E07D
:103080004CE751E021E00E9462290E9487290E94BA
:103090009723982F8091B001813011F0923749F435
:1030A00082E090E09093B5068093B4060E94E61506
:1030B00008C08091B101813011F0913741F70E9431
:1030C000EA14DF91CF911F910F9108958091B4067A
:1030D0009091B5069C012150304002973CF030930E
:1030E000B5062093B4060E94E61508953093B50600
:1030F0002093B40683E694E00E94E0210E94970C9E
:103100000E94EC1708958F929F92AF92BF92CF9238
:10311000DF92EF92FF920F931F93CF93DF934C01B7
:1031200086E190E0889EE001899ED00D989ED00DAA
:103130001124C25FDD4FA880B980CA80DB80C60140
:10314000B50120E030E040E050E00E94F52D87FD21
:1031500010C0C601B50120E030E040E450E40E9418
:10316000912D20E030E048EA52E40E94D32F181657
:10317000CCF586E190E0889E8001899E100D989E96
:10318000100D1124025F1D4FF80180899189A289D9
:10319000B389B058808B918BA28BB38B6091C6069C
:1031A0007091C7068091C8069091C9062FE632E15A
:1031B00043E85AE30E94D72FF801248535854685D8
:1031C00057850E94D72F9B01AC01F8016081718166
:1031D000828193810E94912DF801608371838283A3
:1031E000938334C06091C6067091C7068091C8066B
:1031F0009091C9062FE632E143E85AE30E94D72FA7
:103200007B018C01288939894A895B890E94D72FE3
:103210009B01AC01C601B5010E94912D68837983A1
:103220008A839B83C801B7012C853D854E855F85C8
:103230000E94D72F9B01AC016C817D818E819F8183
:103240000E94912D6C837D838E839F8386E190E025
:10325000889EF001899EF00D989EF00D1124E25F8A
:10326000FD4F648175818681978120E030E040E4E4
:1032700050E40E94912D20E030E040E452E40E94AE
:10328000D32F181614F40E946618DF91CF911F9166
:103290000F91FF90EF90DF90CF90BF90AF909F90F5
:1032A0008F9008950F931F93CF93DF9302E212E064
:1032B000C0E0D0E0F80180819181892B19F0CE0126
:1032C0000E94831821960A5E1F4FCC30D10591F7DA
:1032D000DF91CF911F910F9108958F929F92AF929E
:1032E000BF92CF92DF92EF92FF920F931F93CF93F3
:1032F000DF934C0186E190E0889EE001899ED00D2D
:10330000989ED00D1124CA5EDC4FA880B980CA8077
:10331000DB80C601B50120E030E040E050E00E94D3
:10332000F52D87FD10C0C601B50120E030E040EA70
:1033300050E40E94912D20E030E048EA52E40E94DF
:10334000D32F1816CCF586E190E0889E8001899EE7
:10335000100D989E100D11240A5E1C4FF8018089F3
:103360009189A289B389B058808B918BA28BB38B42
:103370006091C6067091C7068091C8069091C906F3
:103380002FE632E143E85AE30E94D72FF801248563
:103390003585468557850E94D72F9B01AC01F801E2
:1033A00064817581868197810E94912DF8016483E3
:1033B00075838683978334C06091C6067091C70673
:1033C0008091C8069091C9062FE632E143E85AE39E
:1033D0000E94D72F7B018C01288939894A895B8912
:1033E0000E94D72F9B01AC01C601B5010E94912D0F
:1033F000688379838A839B83C801B7012C853D85C7
:103400004E855F850E94D72F9B01AC016C817D8129
:103410008E819F810E94912D6C837D838E839F83FB
:1034200086E190E0889EF001899EF00D989EF00D57
:103430001124EA5EFC4F648175818681978120E0CA
:1034400030E040EA50E40E94912D20E030E040E47A
:1034500052E40E94D32F181614F40E946618DF91CC
:10346000CF911F910F91FF90EF90DF90CF90BF9081
:10347000AF909F908F9008950F931F93CF93DF93FA
:103480000AE213E0C0E0D0E0F80180819181892B4D
:1034900019F0CE010E946D1921960A5E1F4FC630A9
:1034A000D10591F7DF91CF911F910F9108950F935F
:1034B0001F9326E130E0829F8001839F100D929F31
:1034C000100D112402541E4F6091C6067091C7065C
:1034D0008091C8069091C9062FE632E143E85AE38D
:1034E0000E94D72F9B01AC01F801648775878687FE
:1034F000978780E090E0A0E0B0E0808B918BA28B7A
:10350000B38B64817581868197810E94912DF8012A
:10351000648375838683978320E030E040EE50E437
:103520000E94912D20E030E040E452E40E94D32F2D
:10353000181614F40E9466181F910F910895609157
:10354000AA067091AB068091AC069091AD062091D1
:10355000A6063091A7064091A8065091A9060E94A0
:10356000902D20E030E040E050E40E94F52D8823CB
:103570001CF40E947D0E08952A982B9880E090E01C
:103580000E94571A81E090E00E94571A82E090E072
:103590000E94571A08956F927F928F929F92AF92D6
:1035A000BF92CF92DF92EF92FF920F931F93CF9330
:1035B000DF933C01B2E28B2EB2E09B2EF401C0E01F
:1035C000D0E080819181892B39F021967696CC309C
:1035D000D105B9F7C0E0D0E0A6E1CA2ED12C6C9C91
:1035E00050016D9CB00C7C9CB00C112486E193E0E2
:1035F000A80EB91EF501E084F184028513850E94AE
:1036000045316FE170E00E949630AA2797FDA095A2
:10361000BA2FBC01CD010E94972E9B01AC01C801BD
:10362000B7010E94912D7B018C01C601C89F6001EA
:10363000C99FD00CD89FD00C1124EEE0F2E0CE0E42
:10364000DF1EF601E086F18602871387C801B70105
:103650002BED3FE049E450E40E94D72F20E030E01A
:1036600044E353E40E94FC2D0E945A30F601608B23
:10367000718B828B938BC801B7012BED3FE049E43E
:1036800050E40E94D72F20E030E044E353E40E944E
:10369000FC2D0E94F92DF601648775878687978730
:1036A000F50180819181A281B381F60180839183AC
:1036B000A283B383F501648175818681978120E0BF
:1036C00030E040E450E40E94912DF601648375835C
:1036D0008683978381E090E0958B848B8091BC06F4
:1036E0009091BD0601969093BD068093BC06C0E004
:1036F000D0E0F40180819181892B51F0219686E1FF
:1037000090E0880E991ECC30D10599F7C0E0D0E04A
:10371000F6E1CF2ED12C6C9C50016D9CB00C7C9CA2
:10372000B00C1124E6E1F3E0AE0EBF1EF501E0841B
:10373000F184028513850E9445316FE170E00E949B
:103740009630AA2797FDA095BA2FBC01CD010E9403
:10375000972E9B01AC01C801B7010E94902D7B01FF
:103760008C01C601C89F6001C99FD00CD89FD00CA6
:103770001124EEE0F2E0CE0EDF1EF601E086F186C7
:1037800002871387C801B7012BED3FE049E450E4FD
:103790000E94D72F20E030E044E353E40E94FC2D48
:1037A0000E945A30F601608B718B828B938BC8011B
:1037B000B7012BED3FE049E450E40E94D72F20E011
:1037C00030E044E353E40E94FC2D0E94F92DF60101
:1037D0006487758786879787F5016081718182810B
:1037E000938120E030E040E450E40E94912DF60106
:1037F0006083718382839383F501648175818681FF
:10380000978120E030E040E450E40E94912DF601E1
:10381000648375838683978381E090E0958B848BA6
:103820008091BC069091BD0601969093BD06809351
:10383000BC06DF91CF911F910F91FF90EF90DF9029
:10384000CF90BF90AF909F908F907F906F90089592
:103850002F923F924F925F926F927F928F929F92A0
:10386000AF92BF92CF92DF92EF92FF920F931F938E
:10387000DF93CF9300D000D0CDB7DEB76C018B01C2
:103880005A8349833C832B83FB0160817181828150
:10389000938120E030E040E050E40E94912D0E94AE
:1038A0003A301B012C01F601648175818681978174
:1038B0000E943A303B014C01F80164817581868198
:1038C00097810E943A307B018C01F60160857185F9
:1038D000828593850E943A305B016C01C801B70173
:1038E00020E030E040E050E40E94912D7B018C010B
:1038F000C601B50120E030E040E05FE30E94912D79
:103900009B01AC01C801B7010E94902D0E94642E5A
:103910008B0177FF03C0109501951F4FC401B301C0
:1039200020E030E040E05FE30E94912D9B01AC017C
:10393000C201B1010E94902D0E94642ECB0177FF3D
:1039400003C0909581959F4F080F191FB8018827D4
:1039500077FD8095982F0E94972E20E030E040E27E
:1039600050E40E94F52D1816ACF08091B6069091A7
:10397000B70602969093B7068093B6068B819C811A
:103980000E94900589819A810E94CB1A89819A812F
:103990000E94E5050F900F900F900F90CF91DF914F
:1039A0001F910F91FF90EF90DF90CF90BF90AF905D
:1039B0009F908F907F906F905F904F903F902F904F
:1039C0000895CF92DF92EF92FF920F931F93CF93C0
:1039D000DF936C018AE190E0C89E7001C99EF00CF3
:1039E000D89EF00C11248AE993E0E80EF91E06E156
:1039F00013E0C0E0D0E0F80184899589892B31F08B
:103A0000C701B801AE0196010E94281C21960A5EEA
:103A10001F4FC630D10579F7DF91CF911F910F91DC
:103A2000FF90EF90DF90CF9008956F927F928F92EA
:103A30009F92AF92BF92CF92DF92EF92FF920F933D
:103A40001F93CF93DF933C012AE2822E23E0922E34
:103A5000F401C0E0D0E080819181892B39F021967A
:103A60007696C630D105B9F7C0E0D0E00E94453166
:103A70006FE170E00E949630AA2797FDA095BA2FBB
:103A8000BC01CD010E94972E7B018C0196E1A92EED
:103A9000B12CCA9D6001CB9DD00CDA9DD00C1124B5
:103AA00086E193E0C80ED91EE601E886F9860A870A
:103AB0001B87C801B7012BED3FE049E450E40E94A9
:103AC000D72F20E030E044E353E40E94FC2D0E9415
:103AD0005A30F601608B718B828B938BC801B701D2
:103AE0002BED3FE049E450E40E94D72F20E030E086
:103AF00044E353E40E94FC2D0E94F92D6C877D87DE
:103B00008E879F876A9C80016B9C100D7A9C100D9C
:103B1000112402541E4FF8016081718182819381CA
:103B200020E030E040EA50E40E94912D68837983E0
:103B30008A839B83F801648175818681978120E067
:103B400030E040E850E40E94912D6C837D838E83A9
:103B50009F8381E090E09D8B8C8B8091BA06909141
:103B6000BB0601969093BB068093BA06C0E0D0E0F6
:103B7000F40180819181892B51F0219686E190E0BA
:103B8000880E991EC630D10599F7C0E0D0E00E949A
:103B900045316FE170E00E9496304E97AA2797FD5D
:103BA000A095BA2FBC01CD010E94972E7B018C01FC
:103BB00086E1A82EB12CCA9D6001CB9DD00CDA9D68
:103BC000D00C1124C6E1D3E0CC0EDD1EF601E08658
:103BD000F18602871387C801B7012BED3FE049E466
:103BE00050E40E94D72F20E030E044E353E40E94E9
:103BF000FC2D0E945A30E601688B798B8A8B9B8B57
:103C0000C801B7012BED3FE049E450E40E94D72FF3
:103C100020E030E044E353E40E94FC2D0E94F92DA3
:103C2000F60164877587868797876A9CF0016B9C8D
:103C3000F00D7A9CF00D1124E254FE4F80819181A9
:103C4000A281B38188839983AA83BB8364817581B0
:103C50008681978120E030E040E850E40E94912D79
:103C6000F601648375838683978381E090E0958B6A
:103C7000848B8091BA069091BB0601969093BB0607
:103C80008093BA06DF91CF911F910F91FF90EF9033
:103C9000DF90CF90BF90AF909F908F907F906F906C
:103CA00008952F923F924F925F926F927F928F92E0
:103CB0009F92AF92BF92CF92DF92EF92FF920F93BB
:103CC0001F93DF93CF9300D0CDB7DEB76C012B01EC
:103CD0001A013A832983FC01648175818681978169
:103CE0000E943A303B014C01F2016481758186816A
:103CF00097810E943A307B018C01F60160857185C5
:103D0000828593850E943A305B016C01C801B7013E
:103D100020E030E040E450E40E94912D7B018C01D2
:103D2000C601B50120E030E040E05FE30E94912D44
:103D30009B01AC01C801B7010E94902D0E94642E26
:103D40006B0177FF04C0D094C194D108D394F201E1
:103D5000608171818281938120E030E040E450E411
:103D60000E94912D7B018C01C401B30120E030E061
:103D700040E05FE30E94912D9B01AC01C801B701B7
:103D80000E94902D0E94642ECB0177FF03C0909576
:103D900081959F4FC80ED91EB601882777FD809563
:103DA000982F0E94972E20E030E040E650E40E94D9
:103DB000F52D18169CF08091B6069091B7060196E5
:103DC0009093B7068093B60689819A810E949005E8
:103DD000C1010E94151DC1010E9461050F900F9045
:103DE000CF91DF911F910F91FF90EF90DF90CF90D7
:103DF000BF90AF909F908F907F906F905F904F900B
:103E00003F902F900895CF92DF92EF92FF920F9301
:103E10001F93CF93DF936C018AE190E0C89E7001FD
:103E2000C99EF00CD89EF00C11248AE993E0E80EAC
:103E3000F91E0EEB11E0C0E0D0E0F801848995890D
:103E4000892B31F0C701B801AE0196010E94511EC5
:103E500021960A5E1F4FC330D10579F7DF91CF91CC
:103E60001F910F91FF90EF90DF90CF9008950F93E7
:103E70001F93CF93DF9302EB13E0C0E0D0E0F80193
:103E800080819181892BF1F08091B8069091B906DB
:103E9000181619061CF4CE010E94031F8091BA0661
:103EA0009091BB06181619061CF4CE010E94E11C65
:103EB0008091BC069091BD06181619061CF4CE011F
:103EC0000E94B00F2196065E1F4FCE31D105B9F684
:103ED000DF91CF911F910F9108950E94270E0E94AC
:103EE000BA0D0E942B088091C4069091C506181641
:103EF000190614F40E940D118091BE069091BF0620
:103F00001816190624F40E94371F0E94AC0D8091E8
:103F1000B8069091B9061816190614F40E949F1A53
:103F20008091BA069091BB061816190614F40E94E7
:103F30003C1A8091BC069091BD061816190614F41F
:103F40000E9452198091BC069091BD06892B71F494
:103F50008091B8069091B906892B41F48091BA06F8
:103F60009091BB06892B11F40E94E61508951F93CA
:103F70000E949723182F80E090E00E946023809396
:103F8000A90181E090E00E9460238093AA01812F23
:103F90000E94FF158091CE069091CF06892B91F05B
:103FA0008091CA069091CB06892B61F00E94EE2188
:103FB0008CE491E00E94E0210E94970C1092CF06C1
:103FC0001092CE068091CA069091CB06892B41F4BF
:103FD0000E948B08812F0E946D1F0E946B2714C0C6
:103FE0008091CC069091CD06892B19F00E94D20BBE
:103FF0000FC00E946B278BE190E06EE170E042E819
:1040000051E021E00E9462290E9450140E948729F9
:104010001F9108950E94D2170E94B71FFDCF1F93D2
:10402000182F80E090E0612F0E945423892B21F00B
:1040300081E08093AB0106C01092BD011092BC01DB
:104040001092AB0181E090E0612F0E945423892BF4
:1040500021F081E08093AC0106C01092BB01109268
:10406000BA011092AC0182E090E0612F0E945423CB
:10407000892B21F081E08093AD0102C01092AD0147
:1040800083E090E0612F0E945423892B21F081E08E
:104090008093AE0106C01092B9011092B80110923F
:1040A000AE0184E090E0612F0E945423892B21F01F
:1040B00081E08093AF0106C01092B7011092B60163
:1040C0001092AF0185E090E0612F0E945423892B6C
:1040D00021F081E08093B00102C01092B00186E02F
:1040E00090E0612F0E945423892B21F081E080937E
:1040F000B10102C01092B1011F9108951F920F9259
:104100000FB60F9211242F933F934F935F936F93AA
:104110007F938F939F93AF93BF93EF93FF938FE121
:104120000E9415238FE10E940F20FF91EF91BF9114
:10413000AF919F918F917F916F915F914F913F913F
:104140002F910F900FBE0F901F901895CF93DF9374
:10415000C0E0D0E0C0FD06C0CE0167E270E041E003
:104160000E9473272196C435D105A1F7DF91CF9125
:1041700008952F923F924F925F926F927F928F920B
:104180009F92AF92BF92CF92DF92EF92FF920F93E6
:104190001F93CF93DF931B012A018230910509F110
:1041A0008330910534F4009791F08130910551F4FA
:1041B00013C084309105F9F084309105BCF085304E
:1041C0009105F1F000E010E0C0E0D0E01DC009E092
:1041D00010E0C4E0D0E018C007E010E0C7E0D0E095
:1041E00013C005E010E0C5E0D0E00EC003E010E031
:1041F000C3E0D0E009C007E010E0C6E0D0E004C0B2
:1042000002E010E0C2E0D0E07C0123E0EE0CFF1CF5
:104210002A95E1F7E80EF91ECC2481E0682E712C76
:1042200028C0FC01EE0DFF1DEF58FB4FE491DD248B
:104230004C01820C931CAE2EBB2415C0BC01640D36
:10424000751DA301082E02C0440F551F0A94E2F702
:104250004A215B2102C0559547958A95E2F7C40132
:104260000E947327D3948D2D90E08C179D0734F313
:10427000C3948C2D90E0801791079CF2DF91CF9131
:104280001F910F91FF90EF90DF90CF90BF90AF9074
:104290009F908F907F906F905F904F903F902F9066
:1042A0000895DC010D900020E9F71197A81BB90BC8
:1042B000BD010E944C2408950F931F93DF93CF9369
:1042C00000D000D0CDB7DEB72DB73EB72850304074
:1042D0000FB6F8943EBF0FBE2DBFEDB7FEB73196B7
:1042E0008E010F5F1F4FADB7BEB712961C930E9392
:1042F000119724E030E03383228329E831E03583CD
:104300002483978386830E946F322DB73EB7285F40
:104310003F4F0FB6F8943EBF0FBE2DBFC8010E949D
:1043200051210F900F900F900F90CF91DF911F911F
:104330000F9108950F931F93DF93CF93CDB7DEB7FF
:1043400028970FB6F894DEBF0FBECDBF2DB73EB78E
:104350002A5030400FB6F8943EBF0FBE2DBFEDB7C8
:10436000FEB731968E010F5F1F4FADB7BEB71296E5
:104370001C930E93119728E030E0338322832CE8BE
:1043800031E03583248366837783808791870E9419
:104390006F322DB73EB7265F3F4F0FB6F8943EBF42
:1043A0000FBE2DBFC8010E94512128960FB6F89468
:1043B000DEBF0FBECDBFCF91DF911F910F9108954A
:1043C000CF93DF93EC01FE0121968491882319F0AD
:1043D0000E94EA23F8CFDF91CF91089582E896E01A
:1043E0000E94E02108950E94EE2187EA94E00E9455
:1043F000E0210E94EE21089582E796E00E94E021EC
:104400000E94EE2108952F923F924F925F926F92F9
:104410007F928F929F92AF92BF92CF92DF92EF9254
:10442000FF920F931F93DF93CF93CDB7DEB72897FB
:104430000FB6F894DEBF0FBECDBF9C01FE013196D2
:1044400088E0DF011D928A95E9F72430310510F0EC
:1044500023E030E059010894A11CB11CEE24FF2494
:104460004E010894811C911C46EF242E4FEF342EF0
:104470006501CC0CDD1CC80CD91C21E0422E512C4E
:1044800066246A94762C57C00E9497238C01E1140D
:10449000F10411F58D32910551F47A82698287ED2C
:1044A00096E00E94E02191E0E92EF12C44C0C097F3
:1044B0000A9708F040C05A82498285ED96E00E9432
:1044C000E021802F90E0C0979C838B830E945C2129
:1044D00082E0E82EF12C2FC0C0970A9780F4802F3D
:1044E00090E0C097F701EE0FFF1FE80DF91D9183D3
:1044F00080830E945C210894E11CF11C1CC00D30DB
:10450000110531F4F701EE0FFF1FE80DF91D04C08E
:104510000A30110581F4F6CF21923192EC15FD0598
:10452000D9F7C701809590958A0D9B1D0894E11CD1
:10453000F11CE80EF91EEA14FB040CF4A5CFFE01F1
:10454000339640E050E021E030E015C06081718199
:10455000BFEF663F7B0761F0CA01B3E0880F991F88
:10456000BA95E1F7440F551F480F591F460F571FC3
:104570002F5F3F4F32962A153B0544F389819A817C
:10458000489F9001499F300D589F300D1124C9015B
:1045900028960FB6F894DEBF0FBECDBFCF91DF9146
:1045A0001F910F91FF90EF90DF90CF90BF90AF9051
:1045B0009F908F907F906F905F904F903F902F9043
:1045C0000895292F332727FD3A952093BF00809324
:1045D000CF000895ECE7F0E08081806E8083EAE709
:1045E000F0E080818768808310927B00089514BC7E
:1045F00085E085BD81E080936E00089583E080931F
:10460000BF008FEF8093D100E0ECF0E08081826802
:1046100080833F9AE1ECF0E0808187608083109294
:10462000C3000895229A239A0895482F83B186954E
:1046300081708093D00689B181708093D10689B151
:10464000869581708093D20683B1881F8827881F42
:104650008093D30683B181708093D4068FB1829505
:104660008695869581708093D5068FB182958695C3
:1046700081708093D60620E030E0D901A656BE4F67
:104680008C91880F8C938C9184238C938C91F9015D
:10469000E053F94F90818423892B8C932F5F3F4FF8
:1046A0002730310551F70895FC01E656FE4F808111
:1046B00020E030E0861711F421E030E0C9010895D0
:1046C000009719F0019751F404C080917C008E7F0F
:1046D00003C080917C00816080937C0080917A008F
:1046E000806480937A0080917A0084FFFCCF80916F
:1046F000790090E0089581E08093D70080EA80936C
:10470000D80082E189BD09B400FEFDCF80E9809325
:10471000D8001092E0001092A1011092A2018CE04A
:104720008093E200789408958091A10108952FB7B5
:10473000F8948091A101882369F083E08093E900D7
:104740009BE68091E80085FD09C082FF03C090933D
:10475000E800F7CF2FBF2FEF3FEF0CC09091F10093
:104760008091E80085FD03C08BE68093E8002FBFB1
:10477000292F30E0C90108952FB7F8948091A10145
:10478000882311F490E010C083E08093E9009091B9
:10479000F200992349F48091E80082FF05C085FD6D
:1047A00003C08BE68093E8002FBF892F0895809186
:1047B000A101882371F09FB7F89483E08093E9000A
:1047C0002BE602C02093E8008091E80085FDFACF37
:1047D0009FBF0895482F8091A1018823D9F12FB759
:1047E000F89484E08093E9008091A401882341F04B
:1047F0008091E80085FD02C02FBF12C01092A40175
:104800009091E400975E34E08091E80085FD13C04C
:104810002FBF8091E400891729F481E08093A401DF
:104820008FEF08958091A1018823A1F02FB7F8940C
:104830003093E900E9CF4093F1008091E80085FDD5
:1048400003C08AE38093E80085E08093A3012FBF33
:1048500080E008958FEF0895282F8091A10188238B
:1048600051F09FB7F89484E08093E9008091E800CC
:1048700085FD03C09FBF8FEF08952093F1008091C5
:10488000E80085FD03C08AE38093E80085E080931B
:10489000A3019FBF80E00895CF93DF93EC01809147
:1048A000A101882309F41CC13FB7F89484E08093E8
:1048B000E9008091A401882309F408C18091E800EF
:1048C00085FD02C03FBF0CC11092A401FFC09091B2
:1048D000E400975E8091E80085FD13C03FBF8091A2
:1048E000E400891721F481E08093A401F9C080914C
:1048F000A101882309F4F4C03FB7F894B093E9000C
:10490000E9CF8091F200242F281B822F90E06817B6
:10491000790708F4262F822F90E08134910508F062
:10492000C6C08A5A9F4FFC01EE0FFF1F0590F491FD
:10493000E02D099489918093F10089918093F10091
:1049400089918093F10089918093F10089918093FE
:10495000F10089918093F10089918093F100899110
:104960008093F10089918093F10089918093F10007
:1049700089918093F10089918093F10089918093CE
:10498000F10089918093F10089918093F1008991E0
:104990008093F10089918093F10089918093F100D7
:1049A00089918093F10089918093F100899180939E
:1049B000F10089918093F10089918093F1008991B0
:1049C0008093F10089918093F10089918093F100A7
:1049D00089918093F10089918093F100899180936E
:1049E000F10089918093F10089918093F100899180
:1049F0008093F10089918093F10089918093F10077
:104A000089918093F10089918093F100899180933D
:104A1000F10089918093F10089918093F10089914F
:104A20008093F10089918093F10089918093F10046
:104A300089918093F10089918093F100899180930D
:104A4000F10089918093F10089918093F10089911F
:104A50008093F10089918093F10089918093F10016
:104A600089918093F10089918093F10089918093DD
:104A7000F10089918093F10089918093F1008991EF
:104A80008093F10089918093F10089918093F100E6
:104A900089918093F10089918093F10089918093AD
:104AA000F10089918093F10089918093F1008991BF
:104AB0008093F1008091E80085FD02C05093E800EA
:104AC000621B7109A093A3013FBF04C0B4E040E49E
:104AD0005AE3A5E06115710509F0F9CE80E001C047
:104AE0008FEFDF91CF9108959FB7F8948091A30144
:104AF000882341F084E08093E9008AE38093E80012
:104B00001092A3019FBF089560918F017091900151
:104B1000809191019091920108958091930108955F
:104B20008091940108958091950108958091A2014A
:104B30000895282F9FB7F8948091A101882339F018
:104B400082E08093E9008091E80085FD03C09FBF6B
:104B50008FEF089581EA8093F10080E28093F10065
:104B60001092F1001092F1001092F1001092F100F9
:104B700081E08093F1001092F1002093F1008AE32C
:104B80008093E8009FBF80E008951F920F920FB6B8
:104B90000F9211248F939F938091E1001092E10076
:104BA000982F83FF11C01092E90081E08093EB0001
:104BB0001092EC0082E18093ED0088E08093F00099
:104BC0001092A1011092A20192FF13C08091A10145
:104BD000882379F08091A301882359F08150809334
:104BE000A301882331F484E08093E9008AE3809371
:104BF000E8009F918F910F900FBE0F901F90189516
:104C00001F920F920FB60F9211240F931F932F93A1
:104C10003F934F935F936F937F938F939F93AF9344
:104C2000BF93EF93FF931092E9008091E80083FF18
:104C30003CC14091F1003091F1008091F100682F6A
:104C400070E02091F100922F80E0682B792B809109
:104C5000F100A82FB0E02091F100922F80E0A82B66
:104C6000B92B1091F1000091F10082EF8093E800E0
:104C7000363009F05AC020EE36E0A90145505040C8
:104C8000F9013797859194918617970701F5FA01F5
:104C9000859194918A179B07D1F49A012E5F3F4F1B
:104CA000F901659174912E5F3F4FF9014491212FD5
:104CB00030E0902F80E0282B392B2F3F310519F061
:104CC00010F02FEF30E0241758F4422F09C0295F6D
:104CD0003F4F495F5F4FF7E02A303F0789F6E5C055
:104CE0005EEF8091E800282F30E0C9018570907058
:104CF000892BB9F322FDDCC0342F413108F030E1BB
:104D0000232FCB0106C0FC010196E491E093F10052
:104D100021502223C1F7630F711D431B5093E800FC
:104D20004423F9F63031E9F2C3C0353061F48EEF37
:104D30008093E8008091E80080FFFCCF862F806898
:104D40008093E300B5C0393051F5442309F0ADC07C
:104D50006093A1011092A2011092A3018EEF8093A3
:104D6000E80083E097E021E02093E900FC01019650
:104D7000E491E093EB00EE2369F0AC014F5F5F4FED
:104D8000FC0184918093EC00CA010196FA013491F0
:104D90003093ED002F5F253039F78EE181C0383038
:104DA00061F4403809F081C08091E80080FFFCCFB9
:104DB0008091A1018093F10050C0313289F4413AD1
:104DC00009F073C08091E80080FFFCCFEFE8F1E0CC
:104DD00081918093F10081E0E639F807C9F73DC081
:104DE0003032A1F4413209F060C08091E80082FFC6
:104DF000FCCFEFE8F1E08091F100819381E0E639AA
:104E0000F807C9F78BEF8093E80027C0323251F4DE
:104E1000413209F04AC06093A2018091E80080FF0E
:104E2000FCCF1BC03323E9F48091E80080FFFCCF66
:104E3000423811F080E00DC0A093E9008091EB00B2
:104E400090E025E0969587952A95E1F7817010927C
:104E5000E9008093F1001092F1008EEF8093E8005A
:104E600027C0313011F0333001F54230F1F4672BB7
:104E7000E1F42A2F2F77822F81508430B0F48EEF07
:104E80008093E8002093E900333079F089E1809342
:104E9000EB0081E090E002C0880F991F2A95E2F7AD
:104EA0008093EA001092EA0003C081E28093EB0055
:104EB000FF91EF91BF91AF919F918F917F916F91F2
:104EC0005F914F913F912F911F910F910F900FBEC6
:104ED0000F901F901895E7EDF6E0119288E0EF3CF7
:104EE000F807D9F708959C0197FD37C077FD35C0C5
:104EF0008435910594F5603371057CF5CB0173E041
:104F0000959587957A95E1F76770452B99F0E4E5DB
:104F10008E9FF0011124E20FF31FE952F94F81E057
:104F200090E002C0880F991F6A95E2F72081282B34
:104F300020830895E4E58E9FF0011124E20FF31F12
:104F4000E952F94F81E090E002C0880F991F6A95FD
:104F5000E2F7809520812823208308952F923F92A5
:104F60004F925F926F927F928F929F92AF92BF9279
:104F7000CF92DF92EF92FF920F931F93DF93CF9325
:104F8000CDB7DEB72E970FB6F894DEBF0FBECDBFFC
:104F90007C016B014A0139011C870B878417950737
:104FA000F9F45B0110C0C701B5014B855C850E9417
:104FB0007327C614D70424F40894A11CB11C03C0A1
:104FC0000894A108B108C614D7042CF46A147B0411
:104FD0000CF4FDC0E8CFA614B7040CF4F8C0E3CF7E
:104FE00062177307F9F45C0110C0C501B6014B8567
:104FF0005C850E947327E814F90424F40894A11C2A
:10500000B11C03C00894A108B108E814F9042CF4F9
:105010008A149B040CF4DBC0E8CFA814B9040CF488
:10502000D6C0E3CF4817590724F447017A013B0162
:105030006901B4016E197F09882777FD8095982F43
:105040000E94972E6F83788789879A87B3016C199E
:105050007D09882777FD8095982F0E94972E6B8376
:105060007C838D839E832F81388549855A850E9454
:10507000FC2D1B012C0120E030E040E050E00E94BC
:10508000D32F87FF04C057FA509457F85094DA8210
:10509000C9820F2EF0E0AF2EF0E0BF2EF0E0CF2E51
:1050A000F0E0DF2EF02D7FC0C70169817A814B854A
:1050B0005C850E947327C601B501A20191010E947F
:1050C000912D3BC0C70169817A814B855C850E9427
:1050D00073271E861D866B817C818D819E8120E0D9
:1050E00030E040E050E00E94D32F181624F421E075
:1050F00030E03E872D8700E010E06B817C818D8160
:105100009E8120E030E040E050E00E94F52D8823B1
:1051100014F401E010E08D859E85801B910BE981E0
:10512000FA81E80FF91FFA83E983C601B50120E08F
:1051300030E040E85FE30E94902D5B016C0120E0CD
:1051400030E040E05FE30E94D32F8823CCF06B81F6
:105150007C818D819E8120E030E040E050E00E9423
:10516000D32F18163CF429813A81621673060CF08D
:10517000A9CF06C089819A81861597050CF0A2CF28
:105180006F81788589859A8520E030E040E050E0A5
:105190000E94D32F181624F40894E11CF11C03C0BC
:1051A0000894E108F1086F81788589859A8520E067
:1051B00030E040E050E00E94D32F181624F48E1403
:1051C0009F042CF071CFE814F9040CF06DCF2E96EB
:1051D0000FB6F894DEBF0FBECDBFCF91DF911F9108
:1051E0000F91FF90EF90DF90CF90BF90AF909F9086
:1051F0008F907F906F905F904F903F902F90089589
:105200004F925F926F927F928F929F92AF92BF92D6
:10521000CF92DF92EF92FF920F931F93CF93DF9382
:105220003B01490125E0429FA0011124A2E0EA2EA2
:10523000A7E0FA2EE40EF51E8C01F1E04F2E512C62
:10524000E7E0AE2EE7E0BE2EA40EB51EF701849176
:105250008114910409F48095C0E0D0E0C82EDD24CB
:10526000BE01660D771DA2010C2E02C0440F551F12
:105270000A94E2F74C215D210C2E02C0559547950A
:105280000A94E2F7C8010E9473272196C830D1051D
:1052900039F70894E11CF11C0F5F1F4FEA14FB045F
:1052A000A9F6DF91CF911F910F91FF90EF90DF90C2
:1052B000CF90BF90AF909F908F907F906F905F90B6
:1052C0004F900895CF92DF92EF92FF920F931F932A
:1052D000CF93DF936B017A01E901082F10E008C03A
:1052E000802F90E0B6019E010E9400290B5F1F5F96
:1052F000F701E10FF11D4081442391F7DF91CF9138
:105300001F910F91FF90EF90DF90CF900895CF9372
:10531000DF9380E060E00E94FC29C7EDD6E081E0E9
:1053200069910E949A2988E0CF3CD807C1F7DF91A4
:10533000CF91089595B18295880F807E9F7D982B9F
:1053400095B95F9827E030E070E08F98CB01022E8E
:1053500002C0959587950A94E2F780FF02C02E9AC5
:1053600001C02E988F9A215030408FEF2F3F380781
:1053700061F75F9A08951F93182F579A249A259AD8
:10538000269A879A2C985F9A2C9A80E061E20E9474
:105390009A29106880E0612F0E949A2980E064E0D9
:1053A0000E949A2980E063E10E949A2980E06CE0E3
:1053B0000E949A2980E060E20E949A2980E06CE0D5
:1053C0000E949A2980E060E40E949A2980E060E8C7
:1053D0000E949A291F910895CF93DF93C0E0D0E0F7
:1053E00081E060E00E949A29219681E0C83FD807B9
:1053F000B9F7DF91CF9108951F93182F606480E073
:105400000E949A29106880E0612F0E949A291F91BA
:105410000895A1E1B0E0EFE0FAE20C94A9303C017C
:105420007F876E876A01FC0117821682838181FD66
:1054300003C06FEF7FEF6FC39E012F5F3F4F398B2C
:10544000288BF3012381EE85FF8523FD859123FFC2
:105450008191FF87EE87882309F45AC3853251F47E
:10546000EE85FF8523FD859123FF8191FF87EE87E0
:10547000853229F490E0B3010E944332E2CF982FA5
:1054800010E0882499241032B0F49B3269F09C32E9
:1054900028F4903251F0933271F40BC09D3239F000
:1054A000903349F4116028C01260146025C0186060
:1054B00023C0106121C017FD2AC0892F80538A3074
:1054C00078F416FF06C0FAE09F9E902C1124980EE7
:1054D00013C03AE0839E802C1124880E10620CC009
:1054E0009E3221F416FD14C3106406C09C3611F4DC
:1054F000106802C0983659F4EE85FF8523FD95911A
:1055000023FF9191FF87EE87992309F0BCCF892F64
:105510008554833020F4812F8061905E07C0892FED
:105520008556833008F09FC1812F8F7E86FD02C093
:1055300076E0972E6FE3F62EF822953619F4F0E414
:10554000FF2A07C0963619F420E8F22A02C091100B
:105550009A94F7FE0AC03BE3391518F45CE3B52EC4
:1055600002C0B92CB39427E009C047E0491520F4E4
:10557000BB2447E0942EF7CF292DBB24C601049607
:105580009D878C87F6016081718182819381AE0154
:105590004F5F5F4F0B2D0E9455316C010981202E0A
:1055A000332400FF04C003FD02C01DE209C0F1FE68
:1055B00002C01BE205C0F2FC02C010E001C010E214
:1055C000C1018C709070892BB9F1112311F483E023
:1055D00001C084E0881510F088240AC0881AF3FC02
:1055E00007C080E290E0B3010E9443328A94C9F779
:1055F000112329F0812F90E0B3010E94433223FE52
:1056000003C002E819E00EC006E819E00BC0E1147F
:10561000F10409F0805290E0B3010E9443320F5F21
:105620001F4F05C0EF2CFF24F0E1EF22FF24F8010B
:105630008491882361F714C1F7FE12C0BC0C24FECC
:1056400004C08A81813309F4BA941B141CF0BB2472
:10565000B3942DC0F8E0FB1550F538E0B32E27C009
:10566000F6FC25C0892D90E08C159D054CF02CEFA3
:10567000C2162FEFD20624F030E8F32A01C09A9424
:10568000992049F0E2E0F0E0EC0FFD1FE90DF11D7B
:1056900080818033A1F3F7FE0AC0B92CB394892D21
:1056A00090E0C816D90614F0992401C09C18F7FCA4
:1056B00003C025E030E009C01C141D041CF021E0EB
:1056C00030E003C096012F5F3F4F112311F02F5F91
:1056D0003F4F992029F0892D90E00196280F391F1E
:1056E000882D90E02817390714F0882401C0821A09
:1056F0004F2C5524C20189709070892B39F008C055
:1057000080E290E0B3010E9443328A948820C1F77E
:10571000112329F0812F90E0B3010E94433243FE10
:1057200007C008C080E390E0B3010E9443328A942E
:105730008820C1F7F7FE46C08601D7FE02C000E010
:1057400010E076010894E11CF11CE01AF10A41E036
:1057500050E04C0F5D1FE40EF51E26014B1851085A
:10576000892D90E0AA24BB24A81AB90A5FEF0F3F45
:10577000150729F48EE290E0B3010E944332C0166F
:10578000D10634F0401651061CF4F701808101C0A7
:1057900080E3015010400894E11CF11C0A151B0520
:1057A0002CF090E0B3010E944332E0CF0C151D05B0
:1057B00039F49A81963318F4953311F424FE81E379
:1057C00090E04BC08A81813309F00F7E90E0B301F5
:1057D0000E9443329920A1F08EE290E0B3010E9432
:1057E000433212E0E1E0F0E0EC0FFD1FE10FF11DAC
:1057F0001F5F808190E0B3010E9443329A9491F739
:1058000044FC03C085E690E002C085E490E0B3016B
:105810000E944332D7FC05C0C114D10441F404FFF7
:1058200006C0D094C194D108D3948DE201C08BE21C
:1058300090E0B3010E94433280E305C08F5F26EF02
:105840003FEFC20ED31E3AE0C316D104BCF790E07E
:10585000B3010E944332C601C096B3010E94433295
:10586000CC84DD8452C1933631F0933799F093356F
:1058700009F059C023C0F601808189835E01089434
:10588000A11CB11C22E030E0C20ED31E21E0E22EAA
:10589000F12C12C0F601A080B18016FD03C06FEF9D
:1058A0007FEF02C0692D70E022E030E0C20ED31E0F
:1058B000C5010E9438327C011F7713C0F601A08019
:1058C000B18016FD03C06FEF7FEF02C0692D70E05D
:1058D00022E030E0C20ED31EC5010E942D327C01B1
:1058E000106813FF07C01BC080E290E0B3010E9464
:1058F00043328A94882D90E0E816F906A8F30FC089
:10590000F50117FD859117FF81915F0190E0B301CB
:105910000E94433281108A940894E108F108E1144E
:10592000F10471F7F2C0943611F0993689F517FF3A
:1059300008C0F601208131814281538184E090E0EA
:105940000AC0F601808191819C01442737FD409572
:10595000542F82E090E0C80ED91E9FE6F92EF12266
:1059600057FF09C050954095309521953F4F4F4FB7
:105970005F4F90E8F92ACA01B901AE014F5F5F4F4E
:105980002AE030E00E94A032E82EE889EE1A41C0F9
:10599000953721F41F7E2AE030E01CC0197F9F3626
:1059A00061F0903720F4983509F0B2C00FC09037FD
:1059B00039F0983709F0ACC004C028E030E00AC0E4
:1059C000106114FD146020E130E004C014FD166085
:1059D00020E132E017FF08C0F60160817181828109
:1059E000938144E050E008C0F60180819181BC01C0
:1059F00080E090E042E050E0C40ED51EAE014F5F63
:105A00005F4F0E94A032E82E5889E51A8FE7F82EE2
:105A1000F122F6FE0BC08EEFF822E91438F4F4FE02
:105A200007C0F2FC05C09FEEF92202C01E2D01C086
:105A3000192DF4FE0DC0FE01EE0DF11D80818033A5
:105A400019F4E9EEFE2208C01F5FF2FE05C003C094
:105A50008F2D867809F01F5F0F2DF3FC14C0F0FE28
:105A60000FC0181510F09E2C0BC09E2C980C911A8C
:105A7000182D06C080E290E0B3010E9443321F5F00
:105A80001815C0F304C0181510F4811A01C0882439
:105A900004FF0FC080E390E0B3010E94433202FF95
:105AA0001DC001FD03C088E790E00EC088E590E0CE
:105AB0000BC0802F867891F001FF02C08BE201C0FD
:105AC00080E2F7FC8DE290E0B3010E94433206C011
:105AD00080E390E0B3010E9443329A94E914C0F34A
